{
  "_format": "hh-sol-artifact-1",
  "contractName": "AgentEscrow",
  "sourceName": "contracts/AgentEscrow.sol",
  "abi": [
    {
      "inputs": [
        {
          "internalType": "address",
          "name": "_verifier",
          "type": "address"
        }
      ],
      "stateMutability": "nonpayable",
      "type": "constructor"
    },
    {
      "inputs": [],
      "name": "EnforcedPause",
      "type": "error"
    },
    {
      "inputs": [],
      "name": "ExpectedPause",
      "type": "error"
    },
    {
      "inputs": [
        {
          "internalType": "address",
          "name": "owner",
          "type": "address"
        }
      ],
      "name": "OwnableInvalidOwner",
      "type": "error"
    },
    {
      "inputs": [
        {
          "internalType": "address",
          "name": "account",
          "type": "address"
        }
      ],
      "name": "OwnableUnauthorizedAccount",
      "type": "error"
    },
    {
      "inputs": [],
      "name": "ReentrancyGuardReentrantCall",
      "type": "error"
    },
    {
      "anonymous": false,
      "inputs": [
        {
          "indexed": true,
          "internalType": "uint256",
          "name": "escrowId",
          "type": "uint256"
        },
        {
          "indexed": true,
          "internalType": "address",
          "name": "creator",
          "type": "address"
        },
        {
          "indexed": false,
          "internalType": "string",
          "name": "taskDescription",
          "type": "string"
        },
        {
          "indexed": false,
          "internalType": "string",
          "name": "successCriteria",
          "type": "string"
        }
      ],
      "name": "EscrowCreated",
      "type": "event"
    },
    {
      "anonymous": false,
      "inputs": [
        {
          "indexed": true,
          "internalType": "uint256",
          "name": "escrowId",
          "type": "uint256"
        },
        {
          "indexed": false,
          "internalType": "uint256",
          "name": "amount",
          "type": "uint256"
        }
      ],
      "name": "EscrowFunded",
      "type": "event"
    },
    {
      "anonymous": false,
      "inputs": [
        {
          "indexed": false,
          "internalType": "uint256",
          "name": "newFeeBps",
          "type": "uint256"
        }
      ],
      "name": "FeeUpdated",
      "type": "event"
    },
    {
      "anonymous": false,
      "inputs": [
        {
          "indexed": true,
          "internalType": "address",
          "name": "previousOwner",
          "type": "address"
        },
        {
          "indexed": true,
          "internalType": "address",
          "name": "newOwner",
          "type": "address"
        }
      ],
      "name": "OwnershipTransferred",
      "type": "event"
    },
    {
      "anonymous": false,
      "inputs": [
        {
          "indexed": false,
          "internalType": "address",
          "name": "account",
          "type": "address"
        }
      ],
      "name": "Paused",
      "type": "event"
    },
    {
      "anonymous": false,
      "inputs": [
        {
          "indexed": true,
          "internalType": "uint256",
          "name": "escrowId",
          "type": "uint256"
        },
        {
          "indexed": true,
          "internalType": "address",
          "name": "worker",
          "type": "address"
        },
        {
          "indexed": false,
          "internalType": "uint256",
          "name": "amount",
          "type": "uint256"
        },
        {
          "indexed": false,
          "internalType": "uint256",
          "name": "fee",
          "type": "uint256"
        }
      ],
      "name": "PaymentReleased",
      "type": "event"
    },
    {
      "anonymous": false,
      "inputs": [
        {
          "indexed": true,
          "internalType": "uint256",
          "name": "escrowId",
          "type": "uint256"
        },
        {
          "indexed": true,
          "internalType": "address",
          "name": "creator",
          "type": "address"
        },
        {
          "indexed": false,
          "internalType": "uint256",
          "name": "amount",
          "type": "uint256"
        }
      ],
      "name": "Refunded",
      "type": "event"
    },
    {
      "anonymous": false,
      "inputs": [
        {
          "indexed": true,
          "internalType": "uint256",
          "name": "escrowId",
          "type": "uint256"
        },
        {
          "indexed": false,
          "internalType": "string",
          "name": "resultURI",
          "type": "string"
        }
      ],
      "name": "ResultSubmitted",
      "type": "event"
    },
    {
      "anonymous": false,
      "inputs": [
        {
          "indexed": true,
          "internalType": "uint256",
          "name": "escrowId",
          "type": "uint256"
        },
        {
          "indexed": true,
          "internalType": "address",
          "name": "worker",
          "type": "address"
        }
      ],
      "name": "TaskAccepted",
      "type": "event"
    },
    {
      "anonymous": false,
      "inputs": [
        {
          "indexed": false,
          "internalType": "address",
          "name": "account",
          "type": "address"
        }
      ],
      "name": "Unpaused",
      "type": "event"
    },
    {
      "anonymous": false,
      "inputs": [
        {
          "indexed": true,
          "internalType": "uint256",
          "name": "escrowId",
          "type": "uint256"
        },
        {
          "indexed": false,
          "internalType": "bool",
          "name": "passed",
          "type": "bool"
        },
        {
          "indexed": false,
          "internalType": "string",
          "name": "reason",
          "type": "string"
        }
      ],
      "name": "VerdictSubmitted",
      "type": "event"
    },
    {
      "anonymous": false,
      "inputs": [
        {
          "indexed": true,
          "internalType": "address",
          "name": "newVerifier",
          "type": "address"
        }
      ],
      "name": "VerifierUpdated",
      "type": "event"
    },
    {
      "inputs": [],
      "name": "MAX_FEE_BPS",
      "outputs": [
        {
          "internalType": "uint256",
          "name": "",
          "type": "uint256"
        }
      ],
      "stateMutability": "view",
      "type": "function"
    },
    {
      "inputs": [
        {
          "internalType": "uint256",
          "name": "escrowId",
          "type": "uint256"
        }
      ],
      "name": "acceptTask",
      "outputs": [],
      "stateMutability": "nonpayable",
      "type": "function"
    },
    {
      "inputs": [
        {
          "internalType": "string",
          "name": "taskDescription",
          "type": "string"
        },
        {
          "internalType": "string",
          "name": "successCriteria",
          "type": "string"
        }
      ],
      "name": "createAndFundEscrow",
      "outputs": [
        {
          "internalType": "uint256",
          "name": "",
          "type": "uint256"
        }
      ],
      "stateMutability": "payable",
      "type": "function"
    },
    {
      "inputs": [
        {
          "internalType": "uint256",
          "name": "",
          "type": "uint256"
        }
      ],
      "name": "escrows",
      "outputs": [
        {
          "internalType": "address",
          "name": "creator",
          "type": "address"
        },
        {
          "internalType": "address",
          "name": "worker",
          "type": "address"
        },
        {
          "internalType": "uint256",
          "name": "amount",
          "type": "uint256"
        },
        {
          "internalType": "string",
          "name": "taskDescription",
          "type": "string"
        },
        {
          "internalType": "string",
          "name": "successCriteria",
          "type": "string"
        },
        {
          "internalType": "string",
          "name": "resultURI",
          "type": "string"
        },
        {
          "internalType": "enum AgentEscrow.Status",
          "name": "status",
          "type": "uint8"
        }
      ],
      "stateMutability": "view",
      "type": "function"
    },
    {
      "inputs": [],
      "name": "feeBps",
      "outputs": [
        {
          "internalType": "uint256",
          "name": "",
          "type": "uint256"
        }
      ],
      "stateMutability": "view",
      "type": "function"
    },
    {
      "inputs": [
        {
          "internalType": "uint256",
          "name": "escrowId",
          "type": "uint256"
        }
      ],
      "name": "getEscrow",
      "outputs": [
        {
          "components": [
            {
              "internalType": "address",
              "name": "creator",
              "type": "address"
            },
            {
              "internalType": "address",
              "name": "worker",
              "type": "address"
            },
            {
              "internalType": "uint256",
              "name": "amount",
              "type": "uint256"
            },
            {
              "internalType": "string",
              "name": "taskDescription",
              "type": "string"
            },
            {
              "internalType": "string",
              "name": "successCriteria",
              "type": "string"
            },
            {
              "internalType": "string",
              "name": "resultURI",
              "type": "string"
            },
            {
              "internalType": "enum AgentEscrow.Status",
              "name": "status",
              "type": "uint8"
            }
          ],
          "internalType": "struct AgentEscrow.EscrowTask",
          "name": "",
          "type": "tuple"
        }
      ],
      "stateMutability": "view",
      "type": "function"
    },
    {
      "inputs": [],
      "name": "nextEscrowId",
      "outputs": [
        {
          "internalType": "uint256",
          "name": "",
          "type": "uint256"
        }
      ],
      "stateMutability": "view",
      "type": "function"
    },
    {
      "inputs": [],
      "name": "owner",
      "outputs": [
        {
          "internalType": "address",
          "name": "",
          "type": "address"
        }
      ],
      "stateMutability": "view",
      "type": "function"
    },
    {
      "inputs": [],
      "name": "pause",
      "outputs": [],
      "stateMutability": "nonpayable",
      "type": "function"
    },
    {
      "inputs": [],
      "name": "paused",
      "outputs": [
        {
          "internalType": "bool",
          "name": "",
          "type": "bool"
        }
      ],
      "stateMutability": "view",
      "type": "function"
    },
    {
      "inputs": [],
      "name": "renounceOwnership",
      "outputs": [],
      "stateMutability": "nonpayable",
      "type": "function"
    },
    {
      "inputs": [
        {
          "internalType": "uint256",
          "name": "newFeeBps",
          "type": "uint256"
        }
      ],
      "name": "setFeeBps",
      "outputs": [],
      "stateMutability": "nonpayable",
      "type": "function"
    },
    {
      "inputs": [
        {
          "internalType": "address",
          "name": "newVerifier",
          "type": "address"
        }
      ],
      "name": "setVerifier",
      "outputs": [],
      "stateMutability": "nonpayable",
      "type": "function"
    },
    {
      "inputs": [
        {
          "internalType": "uint256",
          "name": "escrowId",
          "type": "uint256"
        },
        {
          "internalType": "string",
          "name": "resultURI",
          "type": "string"
        }
      ],
      "name": "submitResult",
      "outputs": [],
      "stateMutability": "nonpayable",
      "type": "function"
    },
    {
      "inputs": [
        {
          "internalType": "uint256",
          "name": "escrowId",
          "type": "uint256"
        },
        {
          "internalType": "bool",
          "name": "passed",
          "type": "bool"
        },
        {
          "internalType": "string",
          "name": "reason",
          "type": "string"
        }
      ],
      "name": "submitVerdict",
      "outputs": [],
      "stateMutability": "nonpayable",
      "type": "function"
    },
    {
      "inputs": [
        {
          "internalType": "address",
          "name": "newOwner",
          "type": "address"
        }
      ],
      "name": "transferOwnership",
      "outputs": [],
      "stateMutability": "nonpayable",
      "type": "function"
    },
    {
      "inputs": [],
      "name": "unpause",
      "outputs": [],
      "stateMutability": "nonpayable",
      "type": "function"
    },
    {
      "inputs": [],
      "name": "verifier",
      "outputs": [
        {
          "internalType": "address",
          "name": "",
          "type": "address"
        }
      ],
      "stateMutability": "view",
      "type": "function"
    }
  ],
  "bytecode": "0x60806040526001805560c86004553480156200001a57600080fd5b5060405162001c3d38038062001c3d8339810160408190526200003d9162000156565b33806200006557604051631e4fbdf760e01b8152600060048201526024015b60405180910390fd5b620000708162000106565b5060017f9b779b17422d0df92223018b32b4d1fa46e071723d6817e2486d003becc55f00556001600160a01b038116620000e05760405162461bcd60e51b815260206004820152601060248201526f24b73b30b634b2103b32b934b334b2b960811b60448201526064016200005c565b600380546001600160a01b0319166001600160a01b039290921691909117905562000188565b600080546001600160a01b038381166001600160a01b0319831681178455604051919092169283917f8be0079c531659141344cd1fd0a4f28419497f9722a3daafe3b4186f6b6457e09190a35050565b6000602082840312156200016957600080fd5b81516001600160a01b03811681146200018157600080fd5b9392505050565b611aa580620001986000396000f3fe6080604052600436106101095760003560e01c806372c27b62116100955780638c0dd79a116100645780638c0dd79a146102d45780638da5cb5b146102f45780639cb31efe14610312578063d55be8c614610325578063f2fde38b1461033b57600080fd5b806372c27b621461025c5780637d19e5961461027c5780638456cb59146102a957806389cb29dd146102be57600080fd5b80632c81d418116100dc5780632c81d418146101c85780633f4ba83a146101e85780635437988d146101fd5780635c975abb1461021d578063715018a61461024757600080fd5b8063012f52ee1461010e5780631bf6912d1461014a57806324a9d8531461016c5780632b7ac3f314610190575b600080fd5b34801561011a57600080fd5b5061012e6101293660046113fe565b61035b565b6040516101419796959493929190611495565b60405180910390f35b34801561015657600080fd5b5061016a6101653660046113fe565b610540565b005b34801561017857600080fd5b5061018260045481565b604051908152602001610141565b34801561019c57600080fd5b506003546101b0906001600160a01b031681565b6040516001600160a01b039091168152602001610141565b3480156101d457600080fd5b5061016a6101e3366004611553565b610669565b3480156101f457600080fd5b5061016a610a84565b34801561020957600080fd5b5061016a6102183660046115b4565b610a96565b34801561022957600080fd5b50600054600160a01b900460ff166040519015158152602001610141565b34801561025357600080fd5b5061016a610b30565b34801561026857600080fd5b5061016a6102773660046113fe565b610b42565b34801561028857600080fd5b5061029c6102973660046113fe565b610bc6565b60405161014191906115e4565b3480156102b557600080fd5b5061016a610e36565b3480156102ca57600080fd5b5061018260015481565b3480156102e057600080fd5b5061016a6102ef366004611684565b610e46565b34801561030057600080fd5b506000546001600160a01b03166101b0565b6101826103203660046116d0565b610f83565b34801561033157600080fd5b506101826103e881565b34801561034757600080fd5b5061016a6103563660046115b4565b6111e6565b600260208190526000918252604090912080546001820154928201546003830180546001600160a01b039384169590931693919261039890611730565b80601f01602080910402602001604051908101604052809291908181526020018280546103c490611730565b80156104115780601f106103e657610100808354040283529160200191610411565b820191906000526020600020905b8154815290600101906020018083116103f457829003601f168201915b50505050509080600401805461042690611730565b80601f016020809104026020016040519081016040528092919081815260200182805461045290611730565b801561049f5780601f106104745761010080835404028352916020019161049f565b820191906000526020600020905b81548152906001019060200180831161048257829003601f168201915b5050505050908060050180546104b490611730565b80601f01602080910402602001604051908101604052809291908181526020018280546104e090611730565b801561052d5780601f106105025761010080835404028352916020019161052d565b820191906000526020600020905b81548152906001019060200180831161051057829003601f168201915b5050506006909301549192505060ff1687565b610548611224565b60008181526002602052604090206001600682015460ff1660058111156105715761057161145d565b146105b85760405162461bcd60e51b81526020600482015260126024820152715461736b206e6f7420617661696c61626c6560701b60448201526064015b60405180910390fd5b8054336001600160a01b03909116036106135760405162461bcd60e51b815260206004820152601e60248201527f43726561746f722063616e6e6f7420616363657074206f776e207461736b000060448201526064016105af565b600181018054336001600160a01b0319909116811790915560068201805460ff1916600217905560405183907fc8717b61398fb9d7cacf49fe1e296b2f10e9711226b532842b6ffd642cb6a2c690600090a35050565b6003546001600160a01b031633146106c35760405162461bcd60e51b815260206004820152601760248201527f4e6f7420617574686f72697a656420766572696669657200000000000000000060448201526064016105af565b6106cb61124f565b6106d3611224565b60008481526002602052604090206003600682015460ff1660058111156106fc576106fc61145d565b1461073e5760405162461bcd60e51b815260206004820152601260248201527115185cdac81b9bdd081cdd589b5a5d1d195960721b60448201526064016105af565b847f3dc3dcb54124b6e4954503ffab3a0727d9f247ae7495d7275ff46e3e91ca968285858560405161077293929190611793565b60405180910390a2831561095c576000612710600454836002015461079791906117ce565b6107a191906117eb565b905060008183600201546107b5919061180d565b60068401805460ff1916600417905560018401546040519192506000916001600160a01b039091169083908381818185875af1925050503d8060008114610818576040519150601f19603f3d011682016040523d82523d6000602084013e61081d565b606091505b50509050806108675760405162461bcd60e51b815260206004820152601660248201527514185e5bdd5d081d1c985b9cd9995c8819985a5b195960521b60448201526064016105af565b821561090857600080546040516001600160a01b039091169085908381818185875af1925050503d80600081146108ba576040519150601f19603f3d011682016040523d82523d6000602084013e6108bf565b606091505b50509050806109065760405162461bcd60e51b8152602060048201526013602482015272119959481d1c985b9cd9995c8819985a5b1959606a1b60448201526064016105af565b505b600184015460408051848152602081018690526001600160a01b03909216918a917f8cdc8dc08e54a4e57f52077ecf1b4c508758513439cae2aa325dcc85b922fca8910160405180910390a3505050610a54565b60068101805460ff19166005179055805460028201546040516000926001600160a01b031691908381818185875af1925050503d80600081146109bb576040519150601f19603f3d011682016040523d82523d6000602084013e6109c0565b606091505b5050905080610a0a5760405162461bcd60e51b81526020600482015260166024820152751499599d5b99081d1c985b9cd9995c8819985a5b195960521b60448201526064016105af565b815460028301546040519081526001600160a01b039091169087907f7ca5472b7ea78c2c0141c5a12ee6d170cf4ce8ed06be3d22c8252ddfc7a6a2c49060200160405180910390a3505b50610a7e60017f9b779b17422d0df92223018b32b4d1fa46e071723d6817e2486d003becc55f0055565b50505050565b610a8c61127d565b610a946112aa565b565b610a9e61127d565b6001600160a01b038116610ae65760405162461bcd60e51b815260206004820152600f60248201526e496e76616c6964206164647265737360881b60448201526064016105af565b600380546001600160a01b0319166001600160a01b0383169081179091556040517fd24015cc99cc1700cafca3042840a1d8ac1e3964fd2e0e37ea29c654056ee32790600090a250565b610b3861127d565b610a9460006112ff565b610b4a61127d565b6103e8811115610b8b5760405162461bcd60e51b815260206004820152600c60248201526b08ccaca40e8dede40d0d2ced60a31b60448201526064016105af565b60048190556040518181527f8c4d35e54a3f2ef1134138fd8ea3daee6a3c89e10d2665996babdf70261e2c769060200160405180910390a150565b610c026040805160e08101825260008082526020820181905291810182905260608082018190526080820181905260a08201529060c082015290565b600082815260026020818152604092839020835160e08101855281546001600160a01b039081168252600183015416928101929092529182015492810192909252600381018054606084019190610c5890611730565b80601f0160208091040260200160405190810160405280929190818152602001828054610c8490611730565b8015610cd15780601f10610ca657610100808354040283529160200191610cd1565b820191906000526020600020905b815481529060010190602001808311610cb457829003601f168201915b50505050508152602001600482018054610cea90611730565b80601f0160208091040260200160405190810160405280929190818152602001828054610d1690611730565b8015610d635780601f10610d3857610100808354040283529160200191610d63565b820191906000526020600020905b815481529060010190602001808311610d4657829003601f168201915b50505050508152602001600582018054610d7c90611730565b80601f0160208091040260200160405190810160405280929190818152602001828054610da890611730565b8015610df55780601f10610dca57610100808354040283529160200191610df5565b820191906000526020600020905b815481529060010190602001808311610dd857829003601f168201915b5050509183525050600682015460209091019060ff166005811115610e1c57610e1c61145d565b6005811115610e2d57610e2d61145d565b90525092915050565b610e3e61127d565b610a9461134f565b610e4e611224565b600083815260026020819052604090912090600682015460ff166005811115610e7957610e7961145d565b14610ec65760405162461bcd60e51b815260206004820152601a60248201527f5461736b206e6f7420696e20616363657074656420737461746500000000000060448201526064016105af565b60018101546001600160a01b03163314610f225760405162461bcd60e51b815260206004820152601f60248201527f4f6e6c792061737369676e656420776f726b65722063616e207375626d69740060448201526064016105af565b60058101610f31838583611887565b5060068101805460ff1916600317905560405184907f4a24f05a82d55a33d232acaca2124e728d256ccba9173df82ab1231b38695ae490610f759086908690611948565b60405180910390a250505050565b6000610f8d611224565b60003411610fd25760405162461bcd60e51b81526020600482015260126024820152714d757374206465706f7369742066756e647360701b60448201526064016105af565b6001805460009182610fe383611964565b9190505590506040518060e00160405280336001600160a01b0316815260200160006001600160a01b0316815260200134815260200187878080601f016020809104026020016040519081016040528093929190818152602001838380828437600092019190915250505090825250604080516020601f88018190048102820181019092528681529181019190879087908190840183828082843760009201829052509385525050604080516020818101835293815292840192909252500160019052600082815260026020818152604092839020845181546001600160a01b03199081166001600160a01b0392831617835592860151600183018054909416911617909155918301519082015560608201516003820190611105908261197d565b506080820151600482019061111a908261197d565b5060a0820151600582019061112f908261197d565b5060c082015160068201805460ff191660018360058111156111535761115361145d565b0217905550905050336001600160a01b0316817fc6a516943b942e0ef485d8a36e5ac2f69e730f4f6623154a12ad4239fa740bc48888888860405161119b9493929190611a3d565b60405180910390a3807f911052e1be46242b46bf3c2762227ff37c000e5fe38727638096f3a17fbfe170346040516111d591815260200190565b60405180910390a295945050505050565b6111ee61127d565b6001600160a01b03811661121857604051631e4fbdf760e01b8152600060048201526024016105af565b611221816112ff565b50565b600054600160a01b900460ff1615610a945760405163d93c066560e01b815260040160405180910390fd5b611257611392565b60027f9b779b17422d0df92223018b32b4d1fa46e071723d6817e2486d003becc55f0055565b6000546001600160a01b03163314610a945760405163118cdaa760e01b81523360048201526024016105af565b6112b26113d4565b6000805460ff60a01b191690557f5db9ee0a495bf2e6ff9c91a7834c1ba4fdd244a5e8aa4e537bd38aeae4b073aa335b6040516001600160a01b03909116815260200160405180910390a1565b600080546001600160a01b038381166001600160a01b0319831681178455604051919092169283917f8be0079c531659141344cd1fd0a4f28419497f9722a3daafe3b4186f6b6457e09190a35050565b611357611224565b6000805460ff60a01b1916600160a01b1790557f62e78cea01bee320cd4e420270b5ea74000d11b0c9f74754ebdbfc544b05a2586112e23390565b7f9b779b17422d0df92223018b32b4d1fa46e071723d6817e2486d003becc55f0054600203610a9457604051633ee5aeb560e01b815260040160405180910390fd5b600054600160a01b900460ff16610a9457604051638dfc202b60e01b815260040160405180910390fd5b60006020828403121561141057600080fd5b5035919050565b6000815180845260005b8181101561143d57602081850181015186830182015201611421565b506000602082860101526020601f19601f83011685010191505092915050565b634e487b7160e01b600052602160045260246000fd5b6006811061149157634e487b7160e01b600052602160045260246000fd5b9052565b6001600160a01b038881168252871660208201526040810186905260e0606082018190526000906114c890830187611417565b82810360808401526114da8187611417565b905082810360a08401526114ee8186611417565b9150506114fe60c0830184611473565b98975050505050505050565b60008083601f84011261151c57600080fd5b50813567ffffffffffffffff81111561153457600080fd5b60208301915083602082850101111561154c57600080fd5b9250929050565b6000806000806060858703121561156957600080fd5b843593506020850135801515811461158057600080fd5b9250604085013567ffffffffffffffff81111561159c57600080fd5b6115a88782880161150a565b95989497509550505050565b6000602082840312156115c657600080fd5b81356001600160a01b03811681146115dd57600080fd5b9392505050565b60208152600060018060a01b038084511660208401528060208501511660408401525060408301516060830152606083015160e0608084015261162b610100840182611417565b90506080840151601f19808584030160a08601526116498383611417565b925060a08601519150808584030160c0860152506116678282611417565b91505060c084015161167c60e0850182611473565b509392505050565b60008060006040848603121561169957600080fd5b83359250602084013567ffffffffffffffff8111156116b757600080fd5b6116c38682870161150a565b9497909650939450505050565b600080600080604085870312156116e657600080fd5b843567ffffffffffffffff808211156116fe57600080fd5b61170a8883890161150a565b9096509450602087013591508082111561172357600080fd5b506115a88782880161150a565b600181811c9082168061174457607f821691505b60208210810361176457634e487b7160e01b600052602260045260246000fd5b50919050565b81835281816020850137506000828201602090810191909152601f909101601f19169091010190565b83151581526040602082015260006117af60408301848661176a565b95945050505050565b634e487b7160e01b600052601160045260246000fd5b80820281158282048414176117e5576117e56117b8565b92915050565b60008261180857634e487b7160e01b600052601260045260246000fd5b500490565b818103818111156117e5576117e56117b8565b634e487b7160e01b600052604160045260246000fd5b601f821115611882576000816000526020600020601f850160051c8101602086101561185f5750805b601f850160051c820191505b8181101561187e5782815560010161186b565b5050505b505050565b67ffffffffffffffff83111561189f5761189f611820565b6118b3836118ad8354611730565b83611836565b6000601f8411600181146118e757600085156118cf5750838201355b600019600387901b1c1916600186901b178355611941565b600083815260209020601f19861690835b8281101561191857868501358255602094850194600190920191016118f8565b50868210156119355760001960f88860031b161c19848701351681555b505060018560011b0183555b5050505050565b60208152600061195c60208301848661176a565b949350505050565b600060018201611976576119766117b8565b5060010190565b815167ffffffffffffffff81111561199757611997611820565b6119ab816119a58454611730565b84611836565b602080601f8311600181146119e057600084156119c85750858301515b600019600386901b1c1916600185901b17855561187e565b600085815260208120601f198616915b82811015611a0f578886015182559484019460019091019084016119f0565b5085821015611a2d5787850151600019600388901b60f8161c191681555b5050505050600190811b01905550565b604081526000611a5160408301868861176a565b8281036020840152611a6481858761176a565b97965050505050505056fea26469706673582212209bf66d73702f28085bb6ed7fc549deafd9c8344770ca6c8968b0ac9a5ebfa3f364736f6c63430008180033",
  "linkReferences": {},
  "deployedLinkReferences": {}
}